:1000000000400020430400003904000039040000CF
:10001000F1030000F1030000F1030000F103000010
:10002000F1030000F1030000F103000039040000B7
:10003000F1030000F103000039040000390400005E
:1000400039040000390400003904000039040000BC
:1000500039040000F10300003904000039040000F5
:10006000390400003904000039040000390400009C
:10007000390400003904000039040000390400008C
:10008000390400003904000039040000390400007C
:10009000390400003904000039040000390400006C
:1000A0003904000039040000F1030000F1030000EE
:1000B000F1030000F1030000F1030000F103000070
:1000C000400005D0C046C046C04601380028F9D1DE
:1000D0007047F8B507000C000A4E0B4D002C10DDE0
:1000E0003B6833602800FFF7EBFF7B683360280034
:1000F000FFF7E6FFBB6833602800FFF7E1FF013C34
:10010000ECE7F8BD0405005088130000884200DDCC
:1001100008007047884200DA08007047024B1B68ED
:100120005B0C01209843704710050050024B1B6880
:100130009B0E0120984370471005005009014003B1
:1001400008437047F0B5C64600B586B08C4600231C
:100150000593049303931A4E03AD3100643188462E
:10016000012702E00133192B10D0C25C302AF9D1EB
:100170009C00A259013A920041466458013C390062
:10018000A1400C0051590C435451EBE7039B1A0159
:1001900080239B01134362461360049B01931A0161
:1001A0008023DB01134362465360059A12018023CA
:1001B0001B0213436246936006B004BC9046F0BD38
:1001C0000000002082B00023C218127D69465A54F4
:1001D0000133052BF8D103001333411E1A785A71ED
:1001E000013B8B42FAD100236A469A5CC254013328
:1001F000052BF9D102B0704730B583B00500021D60
:10020000002311786846195401330532052BF8D1C3
:10021000182401E0013C09D30521200000F07CFAFC
:100220000029F7D0631EEB5C2B55F3E700236A46E9
:100230009A5C2A7001330535052BF8D103B030BD27
:1002400010B58AB06946104B0A0013CB13C213CB0A
:1002500013C21B7813700BE06846FFF7B3FF0BE087
:1002600007A96846FFF76EFF0A2107A8FFF731FFCD
:10027000FFF754FF0028EFD1FFF758FF0028EFD019
:100280006846FFF7B9FFEBE724070000F0B5DE464C
:1002900057464E464546E0B58DB002A9494B1C3342
:1002A0000A0013CB13C213CB13C21B7813700023A5
:1002B000019300939946002604339B462D339A46BA
:1002C0004F465D466BE05F4569D168006840052197
:1002D00000F022FA0C005B4658005840052100F05F
:1002E0001BFAA54202D08B46250058E08B4501D071
:1002F0008B4654E0E81C052100F00EFA0D0058462C
:100300000430052100F008FA8B4648E00137042F3D
:1003100000DD0427009B019319E0009B002B05D012
:10032000013EF343DB171E40019010E0013FFB4309
:10033000DB171F40009B019309E0002807D0009BBA
:10034000002BE3D00136042E00DD04260194B30017
:100350009B199846B84402AB424651469954AC00AA
:1003600064195C44195509A91800FFF7EBFE052133
:1003700009A8FFF7AEFE3023994602AB4A461A554C
:1003800009A91800FFF7DEFE052109A8FFF7A1FE65
:1003900002AB4246494699541955AE4293D0FFF7F5
:1003A000BDFE0400FFF7C2FE002CC6D00028B4D06A
:1003B000019B002BCBD1009B0122534000930123D2
:1003C0000193C4E72407000010B5054B054A1A60E5
:1003D0000023054A1360054A1360FFF757FFC04624
:1003E00014050050F0FF000044070050680700505B
:1003F00072B60C4B0C4A1A600C4A8020C0010021D6
:1004000010600B4BC046C046C046013B002BF9D1E3
:100410001160084BC046C046C046013B002BF9D1D5
:10042000EEE7C04614050050F0FF00000405005040
:1004300040420F00400D030010B5FFF7D9FF10BD7B
:10044000704710B5164A136803210B431360154A11
:10045000154B9A420DD20333144A9B1A9B08013361
:100460009B0000220F4812498C58845004329A4253
:10047000FAD1104A104B9A4209D2111D03335B1A6C
:10048000032083435B18002102C29A42FCD1FFF78C
:10049000D7FFFFF799FFFFF7D3FF20BFFDE7C04667
:1004A0002405004000000020C800002004000020B7
:1004B0005C070000C8000020C800002070B50028BC
:1004C00012DB83109B00134A944663441C68C000EF
:1004D000FF221600864003252E40B4430A40824086
:1004E0002A4022431A6070BD030008339B109B0012
:1004F000094A944663441C68C000FF2216008640E7
:1005000003252E40B4430A4082402A4022431A6009
:10051000E9E7C04600E400E01CED00E00123834071
:10052000014A13607047C04600E100E001238340A8
:10053000014A13607047C04680E100E00123834018
:10054000014A13607047C04680E200E003460B4357
:100550007FD4002243088B4274D303098B425FD3BC
:10056000030A8B4244D3030B8B4228D3030C8B42E8
:100570000DD3FF22090212BA030C8B4202D31212CE
:10058000090265D0030B8B4219D300E0090AC30BA3
:100590008B4201D3CB03C01A5241830B8B4201D350
:1005A0008B03C01A5241430B8B4201D34B03C01A39
:1005B0005241030B8B4201D30B03C01A5241C30AB1
:1005C0008B4201D3CB02C01A5241830A8B4201D322
:1005D0008B02C01A5241430A8B4201D34B02C01A0C
:1005E0005241030A8B4201D30B02C01A5241CDD2B1
:1005F000C3098B4201D3CB01C01A524183098B42FC
:1006000001D38B01C01A524143098B4201D34B01E4
:10061000C01A524103098B4201D30B01C01A524147
:10062000C3088B4201D3CB00C01A524183088B42CE
:1006300001D38B00C01A524143088B4201D34B00B7
:10064000C01A5241411A00D2014652411046704729
:100650005DE0CA0F00D04942031000D3404253402E
:1006600000229C4603098B422DD3030A8B4212D3EE
:10067000FC22890112BA030A8B420CD38901921120
:100680008B4208D3890192118B4204D389013AD05D
:10069000921100E08909C3098B4201D3CB01C01A32
:1006A000524183098B4201D38B01C01A5241430945
:1006B0008B4201D34B01C01A524103098B4201D333
:1006C0000B01C01A5241C3088B4201D3CB00C01AA0
:1006D000524183088B4201D38B00C01A5241D9D2B8
:1006E00043088B4201D34B00C01A5241411A00D239
:1006F0000146634652415B10104601D34042002B35
:1007000000D54942704763465B1000D3404201B5B3
:10071000002000F005F802BD0029F8D016E7704768
:100720007047C046303030303030303130303031CA
:100730003131303030313030303030303000000046
:1007400030303030303030303030303030303030A9
:0C075000303030303030303030000000ED
:10075C000100000002000000010000000200000087
:10076C000100000003000000030000000300000073
:10077C000300000003000000020000000100000064
:10078C000200000003000000020000000100000055
:10079C000100000001000000010000000100000049
:1007AC000300000002000000030000000200000033
:1007BC000300000001000000040000000200000023
:1007CC00050000000300000004000000050000000C
:1007DC0006000000070000000800000002000000F6
:1007EC0009000000030000000900000001000000E7
:1007FC0008000000070000000600000005000000D3
:10080C0004000000030000000700000001000000CD
:08081C000600000002000000CC
:00000001FF
