:1000000000400020570F0000A70C0000A1070000CF
:10001000A70C0000A70C0000A70C0000A70C000014
:10002000A70C0000A70C0000A70C0000970C000014
:10003000A70C0000A70C0000A70C0000A70C0000F4
:10004000A70C0000A70C0000A70C0000A70C0000E4
:10005000A70C0000A70C0000A70C0000A70C0000D4
:10006000A70C0000A70C0000A70C0000A70C0000C4
:10007000A70C0000A70C0000A70C0000A70C0000B4
:10008000A70C0000A70C0000A70C0000A70C0000A4
:10009000A70C0000A70C0000A70C0000A70C000094
:1000A000A70C0000A70C0000A70C0000A70C000084
:1000B000A70C0000A70C0000A70C0000A70C000074
:1000C00070B5040000F0DCF90A2802D02070013479
:1000D000F8E70023237070BD10B5A0B0074800F00A
:1000E000BFF9074C6846FFF7EBFF684600F0C0FF1A
:1000F00002006946200000F0B3F9F3E7C0110000E8
:10010000C811000000B583B000F0C7F98023DB0000
:1001100000930023034A0449082000F0A1FB03B028
:1001200000BDC046D9000000D811000010B5074B33
:100130001B68802B09D005494A68054CA054013240
:100140007F2002404A6001330B6010BD0C0000208C
:100150002800002010B584B004000A2809D0062326
:100160006A46138001946946012000F09FFA04B0AA
:1001700010BD06236A4613800733019369460120A8
:1001800000F094FAEBE710B584B01D4B1868002816
:1001900003DB1C4B9B68002B19DC194B5B68002BA5
:1001A00013D0184B1B68002B0FDD164B1A6916492C
:1001B000885C1649086001327F210A401A611A687A
:1001C000013A1A600E4B00225A6004B010BD05239C
:1001D0006A4613800B4C0E4BE2689B5C01936946A8
:1001E00000F064FAE3685A1C7F231340E360A368BD
:1001F000013BA360024B012252421A60CDE7C04688
:10020000000000200C000020280000201C250040D9
:10021000A800002070B5384B1B68002B10D1374B5D
:100220001B68002B05D0364B01225A60334B00224D
:100230001A60022000F00CFF022000F0F9FE70BDF1
:10024000304B1868C0B20A2835D01AD802284DD0D1
:1002500008281AD00300203B5E2B49D82A4B5A6944
:100260009B68D318802B43D027498B69274CE054D7
:1002700001337F2423408B6101324A61FFF756FF2F
:1002800036E00D2817D07F28E4D11F4B5B69002B87
:100290002EDD1D4A013B53619369591E7F230B409C
:1002A00093610820FFF742FF2020FFF73FFF08205F
:1002B000FFF73CFF1CE0144A91685369CA18802A72
:1002C00016D0114A9069114C0A25255401307F241B
:1002D0002040906101335B189360002353610D202F
:1002E000FFF724FF0A20FFF721FF01E000F0E8F903
:1002F000014B00221A6092E7082100401C210040B7
:1003000000000020182500400C000020A80000205C
:10031000F0B5C64600B584B03C48002303603C4AB3
:100320008021490411603B4A8021890411603A4AC6
:1003300011680C242143116038490A6822430A607D
:10034000374A38491160384A1360384A1821116019
:10035000374A01311160042202600B3C354A1460B7
:10036000354A1460354A1360354A1360022000F0A4
:10037000A3F9344B84221A60022000F059FE324B5C
:100380005C60324F3D003E0003E0FFF743FFFFF7A4
:10039000FAFE69462E4800F08BF96B46198806294B
:1003A00015D0072905D00129EFD02A4800F0A2F97D
:1003B000EDE76B4602241C5F234B1B68002B02DA1F
:1003C000214B1C60E3E7244800F094F9F8E7019B17
:1003D000DBB298463B68802B0CD10124644269460D
:1003E000200000F065F9FFF715FFFFF7CCFE2B6842
:1003F000802BF4D0726819494046885401327F211D
:100400000A40726001333360C1E7C04600250040F6
:10041000180500501C05005060070050640700508C
:1004200024250040005027006C2500400C2500408A
:100430001425004008200040002000400821004012
:100440001C21004004230040000000200C0000207C
:10045000E703000008120000E0110000280000205F
:100460000FB400B583B004AA02CA0192034800F099
:1004700029FD03B008BC04B01847C0465501000070
:1004800000B585B007236A4613806946012000F055
:1004900011F96B46187905B000BD00B583B0802313
:1004A000DB0000930023034A0349012000F0D8F940
:1004B00003B000BD110300002C1200000E4B1B689E
:1004C000834213D00123436100238363436AD9002D
:1004D000094A52185268002A09D0D900064A52180F
:1004E00092689063DB00044AD31898607047024A10
:1004F00052185060F6E7C046280100200D4B5B689B
:10050000002B0ED10B4BDB68002B08D1094B5B692C
:100510000221002B06D1074B1A68DA6170470121CE
:1005200000E00021034AD361C90052189B6B53605D
:10053000F4E7C0462801002004DF704710B5FA2315
:100540001B01C046C046C046013B002BF9D11548EF
:1005500000220260144B802149041960134B802152
:1005600089041960124B19680C2421431960114940
:100570000B6823430B60104B10491960104B1A6035
:10058000104B18211960104B0131196004230360CE
:10059000033B0E490B600E490B600E490A600E4A80
:1005A000136210BD00250040180500501C050050C6
:1005B00060070050640700502425004000502700C9
:1005C0006C2500400C250040142500400820004008
:1005D000002000400821004028010020074B1B6A32
:1005E000002B03D1064A1368002BFCD0054B186082
:1005F0000023034A1360014A136270472801002058
:100600001C2100401C2500400FB400B583B004AA93
:1006100002CA0192034800F055FC03B008BC04B0C4
:100620001847C046DD05000070B503011B1A9B008A
:10063000144AD3185B69032B07D00301181A8000F2
:10064000104B18180123C36270BD03011B1A9B00D5
:10065000D3181B6B0C4A934201D00133EDD10949E9
:1006600003011A1A92008A1801246442556B6C80A7
:10067000526B02341480181A80004018FFF71EFFD6
:10068000E2E7C046CC010020E703000000DF70472E
:1006900010B5054A1368D361986900F0DFFAFFF7D7
:1006A000F5FF20BFFDE7C0462801002001DF7047AD
:1006B00002DF704703DF704705DF704706DF7047D2
:1006C00007DF70470FB430B583B006AC20CC00F024
:1006D000F5FAFFF733FF019422002900044800F0E7
:1006E000F1FB00F0F3FA03B030BC08BC04B01847CB
:1006F000DD0500000FB430B583B006AC20CC00F0AF
:10070000DDFAFFF71BFF0948FFF77EFF0194220087
:100710002900074800F0D6FB0648FFF775FF00F0F8
:10072000F5FB03B030BC08BC04B0184754120000FD
:10073000DD0500006012000070B50D1E144BDB6972
:10074000986104DB8B00134A9C58002C04D12900CB
:100750001148FFF7CFFF0024280000F071FC2000B3
:10076000FFF762FF0A4BD869436A002B07DD2301BC
:100770001C1BA400094B1C196369012B03D0044BFB
:10078000DB69986970BDFFF799FEFFF7B7FEF6E7E2
:10079000280100204C01002064120000CC01002040
:1007A00010B50248FFF7A6FF10BDC0467C1200003E
:1007B00010B5C41C03239C43094A1368073307215F
:1007C0008B431360074AD31AA34204DB044B186817
:1007D00004191C6010BD0448FFF78CFFF6E7C04603
:1007E000080000200038002088120000F8B5174BE0
:1007F000174A1A608020FFF7DBFF070005008035ED
:10080000A84204D20300134A04C39D42FCD1104CF9
:100810000026200040C00F220F4900F030FCE67493
:10082000A561E761802323627F3B636101336362DB
:10083000A662E662094B23636663A663034B1B68EB
:1008400005225A61023A5A62F8BDC04628010020CA
:10085000CC010020EFBEADDEA0120000E7030000D7
:10086000F0B5DE4657464E464546E0B585B0070032
:1008700002919346039305012D1AAD002E4B5B198F
:1008800001930E9B03330322934398461800FFF70E
:100890008FFF824604004444A04204D20300274A4A
:1008A00004C39C42FCD8244B99463E01F31B9B0099
:1008B0004A469F50281D48440F22029900F0DFFB52
:1008C000F31B9B004B440022DA749C615146D961B2
:1008D00041461962012188465961013159629A6283
:1008E000DA62174919635A639A632500403D403222
:1008F0000021280000F0B4FB231F802252041A605C
:100900002200083A5B4641468B43136023000C3BB0
:100910000C4A1A60203C039B2360F61BB6004E4431
:10092000B5610198FFF7CAFD05B03CBC90469946F9
:10093000A246AB46F0BDC046CC010020EFBEADDE06
:10094000E703000039050000F0B5C64600B58AB0DF
:10095000836B023B1978046A2500426AAF4BDB695E
:100960009861072900D954E18900AD4841588F4664
:100970001800FFF7A3FDFFF7C1FDA84BDB699869DD
:100980000AB004BC9046F0BD2101091B8900A548AE
:1009900041184969032913D0022159615A63002281
:1009A0009A632201121B92009E498A18916A0029BB
:1009B0002AD12201141BA4009A4A1419A36227E029
:1009C0001D682101091B89004118096B9648814265
:1009D00001D08D42E0D1934E23019C46191B890022
:1009E0007118496B89CA89C112680A6063461B1B6A
:1009F0009B00F3185B6B5D806046001B80008019D4
:100A0000FFF75CFDB9E711008A6B002AFBD18B630D
:100A1000FFF774FDB1E7D96A002916D082498C42EC
:100A20000BD0611C09D0996A002916D103215961A4
:100A30001C635A63FFF762FD9FE70021D96201231F
:100A40005B4253800233138097E7611CEED0996AB2
:100A50000029EBD0744884421CD0086885421DD020
:100A6000886B0028E2D00668B54201D00100F7E7A4
:100A7000002910D0836B8B631100436B70CB70C166
:100A80001B680B60036853804369042B08D1013B4A
:100A9000436172E70800816B9962EDE70800FAE7AD
:100AA000FFF70CFD69E71D682EB256801C635A6380
:100AB0002101091B89005B4841184969032912D0AB
:100AC00004225A6100229A632201121B92005549A6
:100AD0008A18916A002929D12201141BA400514AC5
:100AE0001419A36226E02101091B89004118096B32
:100AF0004D48814201D08D42E2D14A498C462101C4
:100B000088460D1BAD006544686BA2CAA2C012687E
:100B100002604246111B890061444A6B56800322E1
:100B20005A610800FFF7CAFC04E011008A6B002A32
:100B3000FBD18B63FFF7E2FC1FE700225A61FFF74E
:100B4000DDFC1AE7002C08DB344BDB6900225A621B
:100B5000A4001A68354BE2500FE73548FFF7CAFD8D
:100B6000F2E7022C03D82D4BDB695C6205E721001C
:100B70003048FFF7BFFDF6E7FFF7E0FC2E48FFF730
:100B800043FD2E4D00262E4B984621E022002DE0FD
:100B900032002C4902A800F09FF9FB691A1B2A4970
:100BA00006A800F099F906A800F062FA082826DDE8
:100BB000BB6942463969525C019706A9009102A9B6
:100BC0002248FFF721FD01363C35102E00D1D4E636
:100BD0002F002B78002BF6D0AC691D4B22689A426F
:100BE000D4D12200043211689942FBD0141B092E83
:100BF000CEDC3200174902A800F06EF9CDE70922D9
:100C0000121A06AC2018202100F02AFA0023637281
:100C1000CEE71148FFF76EFDAFE6C0462801002081
:100C200034120000CC010020E70300004C0100203A
:100C3000A8120000C8120000DC120000D001002041
:100C4000F812000028130000F0120000001300004A
:100C5000EFBEADDE781200001813000080F30988A3
:100C6000022080F31488BFF36F8F7047EFF3098081
:100C70001038F0C044464D4656465F462038F0C016
:100C800010387047F0C8A046A946B246BB46F0C827
:100C900080F30988704700B5FFF7E8FFFFF754FEBF
:100CA000FFF7F0FF00BD00B5FFF7E0FFEFF30581B0
:100CB0001039FFF741FDFFF7E5FF00BDEFF31080AE
:100CC0000549086072B6704762B670470249086805
:100CD00080F31088704700008C050020F8B50400F0
:100CE0000E0015000F350023D373084F013D31006E
:100CF000200000F05FFA7B5C2B703100200000F0D8
:100D0000D3F9041EF2D12800F8BDC04684130000B8
:100D100070B506000D0014001178002905D02800D8
:100D2000B047013421780029F9D170BD10B5030016
:100D30000800984710BD03685A1C0260197070477C
:100D400010B5037800242D2B15D001780B00303B13
:100D50000022092B0BD8013093009B185B005B1815
:100D6000303B1A0001780B00303B092BF3D91000FF
:100D7000002C03D110BD01300134E6E75042F9E701
:100D80000200002007E01900613905290CD8000194
:100D90005738181801321378190030390929F2D858
:100DA000000130381818F5E719004139052903D832
:100DB000000137381818EDE77047F0B5CE464746C2
:100DC00080B587B006000D00170001931178002947
:100DD0000AD02D23994625290BD02800B0473C0086
:100DE000671C61780029F6D107B00CBC9046994683
:100DF000F0BD7A78002AF0D07C1C1300633BD9B296
:100E0000152959D88B002E49CB589F46019B1F1D91
:100E100019782800B0470197E2E7019B1F1D186869
:100E200000280ADB02AA0A21FFF758FF0200290066
:100E30003000FFF76DFF0197D2E7404202AA0A2176
:100E4000FFF74CFF421E4B461370F0E7019B1F1D3E
:100E50001A6829003000FFF75BFF0197C0E7019B8C
:100E60001F1D186802AA0A21FFF738FF0200290097
:100E70003000FFF74DFF0197B2E7019B1A1D904626
:100E80001F68002F05D130212800B0474346019349
:100E9000A6E730212800B04778212800B04702AAF1
:100EA00010213800FFF71AFF020029003000FFF779
:100EB0002FFF4346019393E711002800B0478FE7C7
:100EC0002C13000010B513000A0001000148FFF7C1
:100ED00074FF10BD2D0D00000EB410B583B00400DA
:100EE00005AB04CB0190009301A90748FFF765FF0C
:100EF000019B5A1C019200221A70019B181B03B01F
:100F000010BC08BC03B01847370D000072B60C4B7C
:100F10000C4A1A600C4A8020C001002110600B4B63
:100F2000C046C046C046013B002BF9D11160084BBA
:100F3000C046C046C046013B002BF9D1EEE7C04693
:100F400014050050F0FF00000405005040420F005F
:100F5000400D0300704710B5164A136803210B4378
:100F60001360154A154B9A420DD20333144A9B1A4B
:100F70009B0801339B0000220F4812498C58845073
:100F800004329A42FAD1104A104B9A4209D2111DEA
:100F900003335B1A032083435B18002102C29A4289
:100FA000FCD1FFF723FCFFF7ADF8FFF771FB20BF83
:100FB000FDE7C04624050040000000200C00002092
:100FC00004000020981300000C0000209005002071
:100FD00070B5002812DB83109B00134A94466344CB
:100FE0001C68C000FF221600864003252E40B44333
:100FF0000A4082402A4022431A6070BD0300083331
:101000009B109B00094A944663441C68C000FF2261
:101010001600864003252E40B4430A4082402A40F1
:1010200022431A60E9E7C04600E400E01CED00E05E
:1010300001238340014A13607047C04600E100E08D
:1010400001238340014A13607047C04680E100E0FD
:1010500001238340014A13607047C04680E200E0EC
:1010600003001218934200D1704719700133F9E759
:101070000023C25C0133002AFBD1581E704730B5F3
:101080000500002A00D130BD0C78013A6B1C2C7091
:101090000131002C05D19A189A42F4D01C7001330A
:1010A000FAE71D00EDE70000002243088B4274D3ED
:1010B00003098B425FD3030A8B4244D3030B8B4259
:1010C00028D3030C8B420DD3FF22090212BA030C62
:1010D0008B4202D31212090265D0030B8B4219D343
:1010E00000E0090AC30B8B4201D3CB03C01A524163
:1010F000830B8B4201D38B03C01A5241430B8B42AB
:1011000001D34B03C01A5241030B8B4201D30B0393
:10111000C01A5241C30A8B4201D3CB02C01A5241BA
:10112000830A8B4201D38B02C01A5241430A8B427D
:1011300001D34B02C01A5241030A8B4201D30B0266
:10114000C01A5241CDD2C3098B4201D3CB01C01A80
:10115000524183098B4201D38B01C01A524143098A
:101160008B4201D34B01C01A524103098B4201D378
:101170000B01C01A5241C3088B4201D3CB00C01AE5
:10118000524183088B4201D38B00C01A524143085D
:101190008B4201D34B00C01A5241411A00D2014682
:1011A000524110467047FFE701B5002000F006F8F5
:1011B00002BDC0460029F7D076E770477047C046A9
:1011C00048656C6C6F0A00002D2D3E202573202889
:1011D0002564290A000000004563686F00000000D4
:1011E00054776F2063616E6E6F742077616974202D
:1011F000666F722074686520696E70757420617402
:10120000206F6E636500000073657269616C206415
:10121000726976657220676F7420626164206D6503
:10122000737361676520256400000000536572696F
:10123000616C00007009000088090000160A0000B7
:10124000A60A00003A0B0000440B0000620B0000ED
:10125000780B00000D0A50616E69633A20000000AF
:101260000D0A0000556E65787065637465642069C9
:101270006E746572727570742025640048617264C2
:101280004661756C7400000043616E277420616CC8
:101290006C6F636174652073746F726167650000C1
:1012A00049444C450000000043616E277420636F81
:1012B0006E6E65637420746F2043505520657863AB
:1012C000657074696F6E7300426164207072696F3B
:1012D000726974792025750A000000000D0A5052C9
:1012E0004F434553532044554D500D0A0000000014
:1012F00025752F25750000005A41535242490000C0
:1013000025733A205B25635D2025782073746B3D3F
:1013100025732025730D0A00556E6B6E6F776E2056
:1013200073797363616C6C20256400000C0E0000FF
:101330001A0E0000B80E0000B80E0000B80E000033
:10134000B80E0000B80E0000B80E0000B80E000085
:10135000B80E0000B80E0000B80E0000B80E000075
:10136000B80E0000B80E0000B80E00004C0E0000D1
:10137000B80E00005E0E0000B80E0000B80E0000AF
:101380007A0E000030313233343536373839616205
:081390006364656600000000C3
:0C139800FFFFFFFF010000009005002097
:040000030000086091
:00000001FF
