:10000000004000201F070000150700001507000032
:10001000CD060000CD060000CD060000CD06000094
:10002000CD060000CD060000CD060000150700003B
:10003000CD060000CD0600001507000015070000E2
:100040001507000015070000150700001507000040
:1000500015070000CD060000150700001507000079
:1000600015070000A5030000150700001507000094
:100070001507000015070000150700001507000010
:100080001507000015070000150700001507000000
:1000900015070000150700001507000015070000F0
:1000A0001507000015070000CD060000CD06000072
:1000B000CD060000CD060000CD060000CD060000F4
:1000C000074B1B68002B03D1064A1368002BFCD09A
:1000D0000023034A1360034A1360034B1860704700
:1000E000E40000201C2100401C25004010B51648EB
:1000F00000230360154A802149041160144A8021BD
:1001000089041160134A11680C24214311601249BB
:100110000A6822430A60114A11491160114A1360AA
:10012000114A18211160114A013111600422026044
:10013000033A0F490A600F490A600F490B600F49E3
:100140000B600F4B1A6010BD0025004018050050D1
:100150001C05005060070050640700502425004033
:10016000005027006C2500400C250040142500405D
:100170000820004000200040082100401C210040D1
:10018000E4000020024B1B685B0C01209843704781
:1001900010050050024B1B689B0E012098437047CE
:1001A000100500500901400308437047F0B5C646EA
:1001B00000B586B08C4600230593049303931A4E32
:1001C00003AD310064318846012702E00133192B69
:1001D00010D0C25C302AF9D19C00A259013A920099
:1001E00041466458013C3900A1400C0051590C4370
:1001F0005451EBE7039B1A0180239B011343624692
:100200001360049B01931A018023DB0113436246B0
:100210005360059A120180231B02134362469360C8
:1002200006B004BC9046F0BD0000002010B50123CC
:100230000F4A136000220F490A600F490A600F4AF3
:10024000042111600E4A13600E4AFA2189001160E0
:100250000D4A13600D4A8021490211600C4A136057
:100260000321092000F098FA092000F0C5FA10BD1A
:10027000049000400495004008950040109500400F
:100280000C900040409500400092004004930040D4
:100290000090004010B584B03F4B5A68501C586025
:1002A000052100F031FC002901D004B010BDFFF79A
:1002B00069FF0400FFF76EFF230003432FD0002CDB
:1002C00011D000280FD0354A130048336132302155
:1002D000197001339342FBD12F4B00229A60DA60F0
:1002E0001A615A61E1E72C4B9B68182B0DDC2A4AF6
:1002F000D268002A09D000280BD0284AD2184821F9
:10030000312050540133244A9360234B0022DA6099
:1003100008E0224AD218482130205054F2E71E4B00
:100320000122DA601C4B1B690133032B1ED01A4AD1
:100330001361194B9B68182B03DC174A5269182A62
:1003400024DD01AC154821004830FFF72FFF124A89
:1003500013699B001959124B19609368182BA4DC80
:100360000E4AD3184822302199549EE70A4B0022A6
:100370001A615B690133322B02D0074A5361D8E717
:10038000054B00225A619B68182BDADC034AD3180C
:10039000482231219954D4E7E40000208000002055
:1003A0000405005010B5054B1B68002B00D110BD93
:1003B000FFF770FF014B00221A60F8E74091004000
:1003C0000FB400B583B004AA02CA0192034800F03A
:1003D0005AF903B008BC04B01847C046C100000079
:1003E000884202DB401A8142FCDD70470222012371
:1003F00003280ADC0EE09B1A9342FCDA002B09D09A
:10040000013213005343834203DC03009042F2DACB
:10041000F4E7012318007047054B064A1A60064BA3
:10042000064A1A600023064A1360064A13607047A2
:1004300018050050F0FF000004050050BF5F0000E9
:100440004407005068070050014B00221A607047B3
:100450000405005070B5FFF749FEFFF7DDFFFFF719
:10046000E5FE00250224F426FF3602E00134B54201
:100470000BDC2000FFF7BAFF0028F7D0013522007F
:1004800029000648FFF79CFFF0E7054B00221A60A1
:10049000044B59680448FFF793FF70BD140B00002C
:1004A00004050050E4000020280B0000F8B504000B
:1004B0000E0015000F350023D373084F013D3100A6
:1004C000200000F037FA7B5C2B703100200000F038
:1004D000ABF9041EF2D12800F8BDC046940B000011
:1004E00010B50368002B02D00800984710BD436880
:1004F0005A1C42601970F9E770B505000C000978C4
:10050000002906D02800FFF7EBFF013421780029ED
:10051000F8D170BDF0B5C64600B584B006000D0038
:100520001700097800295BD104B004BC9046F0BDE7
:100530003D1D39783000FFF7D3FF2F004CE03D1D03
:100540003868002809DB6A460A21FFF7AFFF01007F
:100550003000FFF7D1FF2F003EE040426A460A21FB
:10056000FFF7A4FF411E2D230B70F1E73D1D3968F5
:100570003000FFF7C1FF2F002EE03D1D38686A46AE
:100580000A21FFF793FF01003000FFF7B5FF2F00AE
:1005900022E03B1D98463D68002D05D130213000FA
:1005A000FFF79EFF474617E015493000FFF7A4FF0D
:1005B0006A4610212800FFF779FF01003000FFF79D
:1005C0009BFF474608E011003000FFF789FF03E07A
:1005D0003000FFF785FF2C00651C61780029A3D04F
:1005E0002529F5D16A78002AF2D06C1C1300633BF0
:1005F000D9B21529E7D88B000249CB589F46C0468F
:10060000A80B00003C0B000010B5037800242D2B34
:1006100015D001780B00303B092B13D80022013094
:1006200093009B185B005B18303B1A0001780B00AD
:10063000303B092BF3D91000002C05D110BD01303F
:100640000134E6E70022F6E75042F7E70200002017
:1006500007E01900613905290CD80001573818182E
:1006600001321378190030390929F2D800013038E5
:100670001818F5E719004139052903D80001373862
:100680001818EDE7704700B583B000900023019380
:100690006846FFF73FFF03B000BD0EB430B584B02D
:1006A000040007AA02CA002502950390019202A83D
:1006B000FFF730FF039B5A1C03921D700398001B29
:1006C00004B030BC08BC03B01847C04672B60C4B2F
:1006D0000C4A1A600C4A8020C001002110600B4BAC
:1006E000C046C046C046013B002BF9D11160084B03
:1006F000C046C046C046013B002BF9D1EEE7C046DC
:1007000014050050F0FF00000405005040420F00A7
:10071000400D030010B5FFF7D9FF10BD704710B5AD
:10072000164A136803210B431360154A154B9A426E
:100730000DD20333144A9B1A9B0801339B000022FD
:100740000F4812498C58845004329A42FAD1104A08
:10075000104B9A4209D2111D03335B1A03208343C5
:100760005B18002102C29A42FCD1FFF7D7FFFFF7C6
:1007700071FEFFF7D3FF20BFFDE7C0462405004010
:1007800000000020E400002004000020AC0B00006A
:10079000E4000020FC00002070B5002812DB83106C
:1007A0009B00134A944663441C68C000FF22160055
:1007B000864003252E40B4430A4082402A4022430B
:1007C0001A6070BD030008339B109B00094A9446D1
:1007D00063441C68C000FF221600864003252E409B
:1007E000B4430A4082402A4022431A60E9E7C046E7
:1007F00000E400E01CED00E001238340014A1360A7
:100800007047C04600E100E001238340014A1360C5
:100810007047C04680E100E001238340014A136035
:100820007047C04680E200E0002243088B4274D348
:1008300003098B425FD3030A8B4244D3030B8B42E1
:1008400028D3030C8B420DD3FF22090212BA030CEA
:100850008B4202D31212090265D0030B8B4219D3CB
:1008600000E0090AC30B8B4201D3CB03C01A5241EB
:10087000830B8B4201D38B03C01A5241430B8B4233
:1008800001D34B03C01A5241030B8B4201D30B031C
:10089000C01A5241C30A8B4201D3CB02C01A524143
:1008A000830A8B4201D38B02C01A5241430A8B4206
:1008B00001D34B02C01A5241030A8B4201D30B02EF
:1008C000C01A5241CDD2C3098B4201D3CB01C01A09
:1008D000524183098B4201D38B01C01A5241430913
:1008E0008B4201D34B01C01A524103098B4201D301
:1008F0000B01C01A5241C3088B4201D3CB00C01A6E
:10090000524183088B4201D38B00C01A52414308E5
:100910008B4201D34B00C01A5241411A00D201460A
:10092000524110467047FFE701B5002000F0F0F893
:1009300002BDC0460029F7D076E7704703460B4357
:100940007FD4002243088B4274D303098B425FD3C8
:10095000030A8B4244D3030B8B4228D3030C8B42F4
:100960000DD3FF22090212BA030C8B4202D31212DA
:10097000090265D0030B8B4219D300E0090AC30BAF
:100980008B4201D3CB03C01A5241830B8B4201D35C
:100990008B03C01A5241430B8B4201D34B03C01A45
:1009A0005241030B8B4201D30B03C01A5241C30ABD
:1009B0008B4201D3CB02C01A5241830A8B4201D32E
:1009C0008B02C01A5241430A8B4201D34B02C01A18
:1009D0005241030A8B4201D30B02C01A5241CDD2BD
:1009E000C3098B4201D3CB01C01A524183098B4208
:1009F00001D38B01C01A524143098B4201D34B01F1
:100A0000C01A524103098B4201D30B01C01A524153
:100A1000C3088B4201D3CB00C01A524183088B42DA
:100A200001D38B00C01A524143088B4201D34B00C3
:100A3000C01A5241411A00D2014652411046704735
:100A40005DE0CA0F00D04942031000D3404253403A
:100A500000229C4603098B422DD3030A8B4212D3FA
:100A6000FC22890112BA030A8B420CD3890192112C
:100A70008B4208D3890192118B4204D389013AD069
:100A8000921100E08909C3098B4201D3CB01C01A3E
:100A9000524183098B4201D38B01C01A5241430951
:100AA0008B4201D34B01C01A524103098B4201D33F
:100AB0000B01C01A5241C3088B4201D3CB00C01AAC
:100AC000524183088B4201D38B00C01A5241D9D2C4
:100AD00043088B4201D34B00C01A5241411A00D245
:100AE0000146634652415B10104601D34042002B41
:100AF00000D54942704763465B1000D3404201B5C0
:100B0000002000F005F802BD0029F8D016E7704774
:100B10007047C0467072696D6528256429203D20A4
:100B200025640D0A00000000546F74616C20746924
:100B30006D653A202564206D730D0A0030050000B4
:100B40003E050000C6050000C6050000C605000001
:100B5000C6050000C6050000C6050000C605000069
:100B6000C6050000C6050000C6050000C605000059
:100B7000C6050000C6050000C60500006C050000A3
:100B8000C60500007A050000C6050000C605000085
:100B900092050000303132333435363738396162EE
:0C0BA0006364656600000000307800000F
:100BAC000100000002000000010000000200000033
:100BBC00010000000300000003000000030000001F
:100BCC000300000003000000020000000100000010
:100BDC000200000003000000020000000100000001
:100BEC0001000000010000000100000001000000F5
:100BFC0003000000020000000300000002000000DF
:100C0C0003000000010000000400000002000000CE
:100C1C0005000000030000000400000005000000B7
:100C2C0006000000070000000800000002000000A1
:100C3C000900000003000000090000000100000092
:100C4C00080000000700000006000000050000007E
:100C5C000400000003000000070000000100000079
:100C6C0006000000020000003030303030303030F0
:100C7C003030303030303030303030303030303068
:040C8C003000000034
:00000001FF
